                                       STRUCTURES          202205010000055551                                                                                                                                                                                                                                                                                                                                                                                                                                                                                                                                                                                                                                                                                                                                                                                                                                                                                                                                                                     
000000000399999999A15       99999999       SCN       2012032319860101C19870101                    000000000000000000000000000000               SERVICE DE LA DOCUMENTATION   NAT CAD ST-GERMAIN-EN-LAYE    SDNC                          9910011785511250140082                                       82 RUE DU MAL LYAUTEY                 BOITE POSTALE 3045                    ST GERMAIN EN LAYE CEDEX              78103 ST GERMAIN EN LAYE CEDEX        82 RUE DU MAL LYAUTEY BP 3045    78103 ST GERMAIN EN LAYE CEDEX             0130875800                    SDNC@DGFIP.FINANCES.GOUV.FR                                                                                                                                                                                                                       1600000140001121000000000000000000000000000000000000000000000000000000000000                                                                                                                                            
000000000499999999A20       99999999       SCN       2013122319860101C19870101                    000000000000000000000000000000               DIRECTION DES VERIFICATIONS   NATIONALES ET INTERNATIONALES DVNI                          9910011930551485140006B                                      6 BIS RUE COURTOIS                                                          PANTIN                                93696 PANTIN CEDEX                    6 BIS RUE COURTOIS               93696 PANTIN CEDEX                         0141839000                    DVNI@DGFIP.FINANCES.GOUV.FR                                                                                                                                                                                                                       1600220340063328000000000000000000000000000000000000000000000000000000000000                                                                                                                                            
000000000699999999A30       99999999       SCN       2017122119860101C19870101                    000000000000000000000000000000               DIRECTION NATIONALE           INTERVENTIONS DOMANIALES      DNID                          9910011940697170140003 LES ELLIPSES                          3 AVENUE DU CHEMIN DE PRESLES                                               SAINT-MAURICE                         94417 SAINT-MAURICE CEDEX             3 AVENUE DU CHEMIN DE PRESLES    94417 SAINT-MAURICE CEDEX                  0145116200                    DNID@DGFIP.FINANCES.GOUV.FR                                                                                                                                                                                                                       1600220590001019000000000000000000000000000000000000000000000000000000000000                                                                                                                                            
000000000799999999A35       99999999       SCN       2013122319860101C19870101                    000000000000000000000000000000               DIRECTION NAT. VERIFICATIONS  DE SITUATIONS FISCALES        DNVSF                         9910011751170297140034                                       34 RUE AMPERE                         BOITE POSTALE 56                      PARIS                                 75825 PARIS CEDEX 17                  34 RUE AMPERE                    BP 56 PARIS CEDEX 17                       0144016767                    DNVSF@DGFIP.FINANCES.GOUV.FR                                                                                                                                                                                                                      1600221170001622000000000000000000000000000000000000000000000000000000000000                                                                                                                                            
000000000899999999A40       99999999       SCN       2013122319860101C19870101                    000000000000000000000000000000               DIRECTION NATIONALE D'ENQUETES FISCALES                     DNEF                          9910011930551485140006B                                      6 BIS RUE COURTOIS                                                          PANTIN                                93695 PANTIN CEDEX                    6 BIS RUE COURTOIS               93695 PANTIN                               0149918100                    DNEF@DGFIP.FINANCES.GOUV.FR                                                                                                                                                                                                                       1600220670015317000000000000000000000000000000000000000000000000000000000000                                                                                                                                            
000000000999999999A45       99999999       SCN       2013122320010901C20010901                    000000000000000000000000000000               DIRECTION GRANDES ENTREPRISES                               DGE                           9910011930551485140008                                       8 RUE COURTOIS                                                              PANTIN                                93505 PANTIN CEDEX                    8 RUE COURTOIS                   93505 PANTIN CEDEX                         0149911212                    DGE@DGFIP.FINANCES.GOUV.FR                                    ACCUEIL TELEPHONIQUE OU SUR   RENDEZ-VOUS TLJ DE 9H A 18H                                                                                                                           16000009700016  000000000000000000000000000000000000000000000000000000000000                                                                                                                                            
000000001099999999A50       99999999       SCN       2015070120030901C20030901                    000000000000000000000000000000               S.C.N. IMPOTS SERVICE                                       SCN            IMPOTS SERVICE 9910011930552540140027                                       27 RUE DELIZY                                                               PANTIN                                93691 PANTIN                          27 RUE DELIZY                    93691 PANTIN                               0141830310                                                                                                                                                                                                                                                                      1793070380001045000000000000000000000000000000000000000000000000000000000000                                                                                                                                            
000000001199999999B11       99999999       DCOFI     2014122319860101C19870101                    000000000000000000000000000000               DIR SPEC. DE CONTROLE FISCAL  ILE-DE-FRANCE                 DCOFI          IDF            9910011930667275140274                                       274 AVENUE DU PRESIDENT WILSON                                              SAINT DENIS                           93211 SAINT DENIS LA PLAINE CEDEX     274 AVE DU PDT WILSON            93211 ST DENIS LA PLAINE CEDEX             0155935000                                                                                                                                                                                                                                                                      1300206540001364000000000000000000000000000000000000000000000000000000000000                                                                                                                                            
000000001299999999B12       99999999       DCOFI     2019010119860101C19870101                    000000000000000000000000000000               DIR SPEC. DE CONTROLE FISCAL  ILE-DE-FRANCE                 DCOFI          IDF            9910011930667275140274                                       274 AVENUE DU PDT WILSON                                                    SAINT-DENIS                           93211 ST DENIS LA PLAINE CEDEX        274 AVENUE DU PDT WILSON         93211 ST DENIS LA PLAINE CEDEX             0155935000                    DIRCOFI-IDF-OUEST@DGFIP.FINANCES.GOUV.FR                                                                                                                                                                                                          1300206540001363000000000000000000000000000000000000000000000000000000000000                                                                                                                                            
000000001399999999B21       99999999       DFIP      2012090119860101C19870101                    000000000000000000000000000000               DIR REGION FINANCES PUBLIQUES ILE-DE-FRANCE ET PARIS        DRFIP          IDF ET PARIS   9910011751020654140011                                       11 RUE DE LA BANQUE                                                         PARIS                                 75075 PARIS CEDEX 02                  11 RUE DE LA BANQUE              75075 PARIS CEDEX 02                       0149262222                    DRFIP75@DGFIP.FINANCES.GOUV.FR                                                                                                                                                                                                                    1300124950212481000000000000000000000000000000000000000000000000000000000000                                                                                                                                            
000000001499999999B31       999999999030000SCN       2017090419860101C19870101                    000000000000000000000000000000               DIRECTION DES IMPOTS          DES NON RESIDENTS             DINR           DINR           9910011930510395140010 DINR                                  10 RUE DU CENTRE                                                            NOISY-LE-GRAND                        93465 NOISY-LE-GRAND CEDEX            10 RUE DU CENTRE                 93465 NOISY-LE-GRAND CEDEX                 0157338888                    DINR@DGFIP.FINANCES.GOUV.FR                                                                                                                                                                                                                       1775022590001918000000000000000000000000000000000000000000000000000000000000                                                                                                                                            
000000001599999999B32       99999999       SCN       2005010120050101C20050101                    000000000000000000000000000000               SERVICES CENTRAUX                                           SCES CX                                                                                                                                                                                                                                                                                                                                                                                                                                                                                                                                                                                                                        000000000000000000000000000000000000000000000000000000000000                                                                                                                                            
000000003499999999R13       99999999       DCOFI     2017090120000901C20000930                    000000000000000000000000000000               DIR SPEC. DE CONTROLE FISCAL  SUD-EST-OUTRE-MER             DCOFI          SEOM           9910093132034004140005 DIRCOFI SUD EST                       5 AVENUE GENERAL LECLERC              CS 10251                              MARSEILLE                             13331 MARSEILLE CEDEX 03              5 AV GAL LECLERC CS 10251        13331 MARSEILLE CEDEX 03                   0491138202                    DIRCOFI-SUD-EST@DGFIP.FINANCES.GOUV.FR                                                                                                                                                                                                            17131814000018  000000000000000000000000000000000000000000000000000000000000                                                                                                                                            
000000003599999999R31       99999999       DCOFI     2012042620000901C20000901                    000000000000000000000000000000               DIR SPEC. DE CONTROLE FISCAL  SUD-PYRENEES                  DCOFI          SUD-PYRENEES   9910076315555896140015                                       15 RUE MERLY                                                                TOULOUSE                              31066 TOULOUSE CEDEX                  15 RUE MERLY                     31066 TOULOUSE CEDEX                       0561106600                    DIRCOFI-SUD-PYRENEES@DGFIP.FINANCES.GOUV.FR                                                                                                                                                                                                       17310802800015  000000000000000000000000000000000000000000000000000000000000                                                                                                                                            
000000003699999999R33       99999999       DCOFI     2020120120000901C20000901                    000000000000000000000000000000               DIR SPEC. DE CONTROLE FISCAL  SUD-OUEST                     DCOFI          SUD-OUEST      9910075330631820140008                                       8 PLACE DU CHAMP DE MARS              CS61955                               BORDEAUX                              33061 BORDEAUX CEDEX                  8 PLACE DU CHAMP DE MARS         CS61955 33061 BORDEAUX CEDEX               0557810202                    DIRCOFI-SUD-OUEST@DGFIP.FINANCES.GOUV.FR                                                                                                                                                                                                          17330802400012  000000000000000000000000000000000000000000000000000000000000                                                                                                                                            
000000003799999999R35       99999999       DCOFI     2017090120000901C20000901                    000000000000000000000000000000               DIR SPEC. DE CONTROLE FISCAL  CENTRE OUEST                  DCOFI          CENTRE OUEST   9910053352389070140017                                       17 BOULEVARD SOLFERINO                CS 14208                              RENNES                                35042 RENNES CEDEX                    17 BD SOLFERINO                  CS 14208 35042 RENNES CEDEX                0223448200                                                                                                                                                                                                                                                                      17350801100017  000000000000000000000000000000000000000000000000000000000000                                                                                                                                            
000000003899999999R45       99999999       DCOFI     2012042620000901C20000901                    000000000000000000000000000000               DIR SPEC.DE CONTROLE FISCAL   CENTRE                        DCOFI          CENTRE         9910024452341030140070 DIRECTION DE CONTROLE FISCAL          70 RUE DE LA BRETONNERIE              BP 2457                               ORLEANS                               45032 ORLEANS CEDEX 1                 70 RUE DE LA BRETONNERIE         BP 2457 45032 ORLEANS CEDEX 1              0238745500                                                                                                                                                                                                                                                                      1745098930001562000000000000000000000000000000000000000000000000000000000000                                                                                                                                            
000000003999999999R54       99999999       DCOFI     2012110120000901C20000901                    000000000000000000000000000000               DIR SPEC. DE CONTROLE FISCAL  EST                           DCOFI          EST            9910044543950721140004                                       4 RUE DU CARDINAL TISSERANT           CS30057                               NANCY                                 54036 NANCY CEDEX                     4 RUE DU CARDINAL TISSERANT      CS30057 54036 NANCY CEDEX                  0383908300                    DIRCOFI-EST@DGFIP.FINANCES.GOUV.FR                                                                                                                                                                                                                17540702200011  000000000000000000000000000000000000000000000000000000000000                                                                                                                                            
000000004099999999R59       99999999       DCOFI     2019030120000901C20000901                    000000000000000000000000000000               DIR SPEC. DE CONTROLE FISCAL  NORD                          DCOFI          NORD           9910032593506895140172                                       172 RUE PIERRE MAUROY                                                       LILLE                                 59041 LILLE CEDEX                     172 RUE PIERRE MAUROY            CS 30002 59041 LILLE CEDEX                 0320154250                    DIRCOFI-NORD@DGFIP.FINANCES.GOUV.FR                                                                                                                                                                                                               17590805200392  000000000000000000000000000000000000000000000000000000000000                                                                                                                                            
000000004199999999R69       99999999       DCOFI     2017100120000901C20000901                    000000000000000000000000000000               DIR SPEC. DE CONTROLE FISCAL  CENTRE EST                    DCOFI          CENTRE EST     9910084693837520140053                                       53 BOULEVARD VIVIER MERLE                                                   LYON 3EME                             69422 LYON CEDEX 03                   53 BOULEVARD VIVIER MERLE        69422 LYON CEDEX 03                        0481133200                    DIRCOFI-CENTRE-EST@DGFIP.FINANCES.GOUV.FR                                                                                                                                                                                                         17691503100015  000000000000000000000000000000000000000000000000000000000000                                                                                                                                            
000000004299999999010       999999990010000DFIP      2015040119860101C19870101                    000000000000000000000000000000               DIR DEPT FINANCES PUBLIQUES   AIN                           DDFIP          AIN            9910084010532540140011                                       11 BD MARECHAL LECLERC                BP 40423                              BOURG EN BRESSE                       01012 BOURG EN BRESSE CEDEX           11 BD MARECHAL LECLERC           BP 40423 01012 BOURG EN BRESSE             0474456800                    DDFIP01@DGFIP.FINANCES.GOUV.FR                                LUNDI AU JEUDI 8H30-12H       13H30-16H VENDREDI 8H30-12H                                                                                                                           1300116380001777000000000000000000000000000000000000000000000000000000000000                                                                                                                                            
000000004399999999020       999999990020000DFIP      2011102519860101C19870101                    000000000000000000000000000000               DIR DEPT FINANCES PUBLIQUES   AISNE                         DDFIP          AISNE          9910032024082490140028 DIR DEPART DES FINANCES PUBLIQUES     28 RUE SAINT MARTIN                                                         LAON                                  02025 LAON                            28 RUE SAINT MARTIN              02025 LAON                                 0323263131                    DDFIP02@DGFIP.FINANCES.GOUV.FR                                                                                                                                                                                                                    1300127920001177000000000000000000000000000000000000000000000000000000000000                                                                                                                                            
000000004499999999030       999999990030000DFIP      2011110119860101C19870101                    000000000000000000000000000000               DIR DEPT FINANCES PUBLIQUES   ALLIER                        DDFIP          ALLIER         9910084031902190140009                                       9 AVENUE VICTOR HUGO                  BP 81609                              MOULINS                               03016 MOULINS CEDEX                   9 AVENUE VICTOR HUGO             BP 81609 03016 MOULINS CEDEX               0470351235                    DDFIP03@DGFIP.FINANCES.GOUV.FR                                                                                                                                                                                                                    1300147070001777000000000000000000000000000000000000000000000000000000000000                                                                                                                                            
000000004599999999040       999999990040000DFIP      2017090119860101C19870101                    000000000000000000000000000000               DIR DEPT FINANCES PUBLIQUES   ALPES-DE-HAUTE-PROVENCE       DDFIP          ALPES-HTE-PROV 9910093040700875140051 DDFIP ALPES DE HAUTE PROVENCE         51 AVENUE DU 8 MAI 1945               CS 04017                              DIGNE LES BAINS                       04017 DIGNE LES BAINS CEDEX           51 AVENUE DU 8 MAI 1945 CS 04017 04017 DIGNE LES BAINS CEDEX                0492308400                    DDFIP04@DGFIP.FINANCES.GOUV.FR                                TLJ DU LUNDI AU VENDREDI      8H30 - 11H30                                                                                                                                          1300100690001677000000000000000000000000000000000000000000000000000000000000                                                                                                                                            
000000004699999999050       999999990050000DFIP      2011102419860101C19870101                    000000000000000000000000000000               DIR DEPT FINANCES PUBLIQUES   HAUTES-ALPES                  DDFIP          HAUTES-ALPES   991009305061128014     IMMEUBLE LES CORDELIERS               CRS LADOUCETTE                        BOITE POSTALE 104                     GAP                                   05007 GAP CEDEX                       CRS LADOUCETTE                   BP 104 05007 GAP CEDEX                     0492525900                    DDFIP05@DGFIP.FINANCES.GOUV.FR                                                                                                                                                                                                                    1300132040001677000000000000000000000000000000000000000000000000000000000000                                                                                                                                            
000000004799999999060       999999990060000DFIP      2019110119860101C19870101                    000000000000000000000000000000               DIR DEPT FINANCES PUBLIQUES   ALPES-MARITIMES               DDFIP          ALPES-MARITIMES9910093060881885140015BDDFIP ALPES MARITIMES                 15 B RUE DELILLE                      CS 51015                              NICE                                  06073 NICE CEDEX 1                    15 B RUE DELILLE                 CS 51015 06073 NICE CEDEX 1                0492176000                    DDFIP06@DGFIP.FINANCES.GOUV.FR                                                                                                                                                                                                                    1300083860001877000000000000000000000000000000000000000000000000000000000000                                                                                                                                            
000000004899999999070       999999990070000DFIP      2015010119860101C19870101                    000000000000000000000000000000               DIR DEPT FINANCES PUBLIQUES   ARDECHE                       DDFIP          ARDECHE        9910084071860990140011                                       11 AVENUE DU VANEL                    BOITE POSTALE 714                     PRIVAS                                07007 PRIVAS CEDEX                    11 AVENUE DU VANEL               BP 714 07007 PRIVAS CEDEX                  0475655555                    DDFIP07@DGFIP.FINANCES.GOUV.FR                                TLJ8H30A12H LUNDIMERCREDI13H30A16H VENDREDI13H30A15H OU RDV                                                                                                                         1300132120001977000000000000000000000000000000000000000000000000000000000000                                                                                                                                            
000000004999999999080       999999990080000DFIP      2012090119860101C19870101                    000000000000000000000000000000               DIR DEPT FINANCES PUBLIQUES   ARDENNES                      DDFIP          ARDENNES       9910044081050172140050                                       50 AVENUE D ARCHES                    CS 60005                              CHARLEVILLE MEZIERES                  08011 CHARLEVILLE MEZIERES CEDEX      50 AV D ARCHES CS 60005          08011 CHARLEVILLE MEZIERES CEDEX           0324337575                    DDFIP08@DGFIP.FINANCES.GOUV.FR                                                                                                                                                                                                                    1300128000001277000000000000000000000000000000000000000000000000000000000000                                                                                                                                            
000000005099999999090       999999990090000DFIP      2022040119860101C19870101                    000000000000000000000000000000               DIR DEPT FINANCES PUBLIQUES   ARIEGE                        DDFIP          ARIEGE         9910076091220595140055 55 COURS GABRIEL FAURE                BP 30086                              CS 10001                              FOIX                                  09018 FOIX CEDEX                      55 COURS GABRIEL FAURE           CS 10001 09018 FOIX CEDEX                  0561054550                    DDFIP09@DGFIP.FINANCES.GOUV.FR                                 L-AU-J-8H30-12H              SUR-RDV-L- MER-J-13H30-15H30                                                                                                                          1300126690001177000000000000000000000000000000000000000000000000000000000000                                                                                                                                            
000000005199999999100       999999990100000DFIP      2021020119860101C19870101                    000000000000000000000000000000               DIR DEPT FINANCES PUBLIQUES   AUBE                          DDFIP          AUBE           9910044103871980140022                                       22 BOULEVARD GAMBETTA                 BOITE POSTALE 381                     TROYES                                10026 TROYES CEDEX                    22 BOULEVARD GAMBETTA            BP 381 10026 TROYES CEDEX                  03254370640325437071          DDFIP10@DGFIP.FINANCES.GOUV.FR                                LUN A VEN 8H30-12H30                                                                                                                                                                1300114060001977000000000000000000000000000000000000000000000000000000000000                                                                                                                                            
000000005299999999110       999999990110000DFIP      2015100119860101C19870101                    000000000000000000000000000000               DIR DEPT FINANCES PUBLIQUES   AUDE                          DDFIP          AUDE           991007611069178314     CENTRE DES FINANCES PUBLIQUES         CITE ADMIN PL GASTON JOURDANNE        CS 80001                              CARCASSONNE                           11833 CARCASSONNE CEDEX 9             CITE ADMIN PL GASTON JOURDANNE   11833 CARCASSONNE CEDEX 9                  0468774444                    DDFIP11@DGFIP.FINANCES.GOUV.FR                                                                                                                                                                                                                    1300100850001277000000000000000000000000000000000000000000000000000000000000                                                                                                                                            
000000005399999999120       999999990120000DFIP      2021010119860101C19870101                    000000000000000000000000000000               DIR DEPT FINANCES PUBLIQUES   AVEYRON                       DDFIP          AVEYRON        9910076122020090140002                                       2 PCE D ARMES                         CS 53513                              RODEZ                                 12035 RODEZ CEDEX 9                   2 PCE D ARMES CS 53513           12035 RODEZ CEDEX 9                        0565754040                    DDFIP12@DGFIP.FINANCES.GOUV.FR                                TLJ 9H-12H 13H30-16H                                                                                                                                                                1300129170001477000000000000000000000000000000000000000000000000000000000000                                                                                                                                            
000000005499999999131       999999990130000DFIP      2015060119860101C19870101                    000000000000000000000000000000               DIR REGION FINANCES PUBLIQUES PACA ET BOUCHES-DU-RHONE      DRFIP          BOUCH.-DU-RHONE9910093132081337140016                                       16 RUE BORDE                                                                MARSEILLE                             13357 MARSEILLE CEDEX 20              16 RUE BORDE                     13357 MARSEILLE CEDEX 20                   0491179117                    DRFIP13@DGFIP.FINANCES.GOUV.FR                                8H30-12H ET 13H30-16H LUN-MAR MER-VEN OU SUR RV FERME JEUDI                                                                                                                         1300130300001578000000000000000000000000000000000000000000000000000000000000                                                                                                                                            
000000005599999999132       99999999       DFIP      2012100119860101C19870101                    000000000000000000000000000000               DIR REGION FINANCES PUBLIQUES PACA ET BOUCHES-DU-RHONE      DRFIP          BOUCH.-DU-RHONE9910093132081337140016                                       16 RUE BORDE                                                                MARSEILLE                             13357 MARSEILLE CEDEX 20              16 RUE BORDE                     13357 MARSEILLE CEDEX 20                   0491179117                    DRFIP13@DGFIP.FINANCES.GOUV.FR                                LUNDI A VENDREDI DE 8H30 A 12H13H30 A 16H OU SUR RDV                                                                                                                                1300130300001579000000000000000000000000000000000000000000000000000000000000                                                                                                                                            
000000005799999999140       999999990140000DFIP      2016020119860101C19870101                    000000000000000000000000000000               DIR DEPT FINANCES PUBLIQUES   CALVADOS                      DDFIP          CALVADOS       9910028141180820140007                                       7 BOULEVARD BERTRAND                  BP 40532                              CAEN                                  14034 CAEN CEDEX 1                    7 BOULEVARD BERTRAND BP 40532    14034 CAEN CEDEX 1                         0231383400                    DDFIP14@DGFIP.FINANCES.GOUV.FR                                LUN AU VEN 8H45-12H 13H15-16H OU SUR RDV FERME LE MERCREDI                                                                                                                          1300100280001277000000000000000000000000000000000000000000000000000000000000                                                                                                                                            
000000005999999999150       999999990150000DFIP      2011102519860101C19870101                    000000000000000000000000000000               DIR DEPT FINANCES PUBLIQUES   CANTAL                        DDFIP          CANTAL         9910084150140410140039                                       39 RUE DES CARMES                                                           AURILLAC                              15012 AURILLAC CEDEX                  39 RUE DES CARMES                15012 AURILLAC CEDEX                       0471468500                    DDFIP15@DGFIP.FINANCES.GOUV.FR                                                                                                                                                                                                                    1300147150001077000000000000000000000000000000000000000000000000000000000000                                                                                                                                            
000000006099999999160       999999990160000DFIP      2013090119860101C19870101                    000000000000000000000000000000               DIR DEPT FINANCES PUBLIQUES   CHARENTE                      DDFIP          CHARENTE       9910075160153245140003                                       3 RUE PIERRE LABACHOT                 CS 12222                              ANGOULEME                             16022 ANGOULEME CEDEX                 3 RUE PIERRE LABACHOT CS 12222   16022 ANGOULEME CEDEX                      0545943700                    DDFIP16@DGFIP.FINANCES.GOUV.FR                                                                                                                                                                                                                    1300128180001477000000000000000000000000000000000000000000000000000000000000                                                                                                                                            
000000006199999999170       999999990170000DFIP      2015110119860101C19870101                    000000000000000000000000000000               DIR DEPT FINANCES PUBLIQUES   CHARENTE-MARITIME             DDFIP          CHARENTE-MARIT 9910075173003140140024                                       24 AV DE FETILLY                      BP 40587                              LA ROCHELLE                           17021 LA ROCHELLE CEDEX 1             24 AV DE FETILLY                 BP 40587 17021 LA ROCHELLE CEDEX1          0546003939                    DDFIP17@DGFIP.FINANCES.GOUV.FR                                LUNDI A VENDREDI 8H30-12H     LUN MER VEN 13H30-16H ET S RDV                                                                                                                        1300114140001377000000000000000000000000000000000000000000000000000000000000                                                                                                                                            
000000006299999999180       999999990180000DFIP      2012120119860101C19870101                    000000000000000000000000000000               DIR DEPT FINANCES PUBLIQUES   CHER                          DDFIP          CHER           9910024180333300140002                                       2 BD LAHITOLLE                                                              BOURGES                               18021 BOURGES CEDEX                   2 BD LAHITOLLE                   18021 BOURGES CEDEX                        0248697171                    DDFIP18@DGFIP.FINANCES.GOUV.FR                                LUNDI AU VENDREDI             8H45 A 12H ET 13H30 A 16H15                                                                                                                           1300102000001777000000000000000000000000000000000000000000000000000000000000                                                                                                                                            
000000006399999999190       999999990190000DFIP      2011102519860101C19870101                    000000000000000000000000000000               DIR DEPT FINANCES PUBLIQUES   CORREZE                       DDFIP          CORREZE        9910075192721440140015                                       15 AVENUE HENRI DE BOURNAZEL          BP 239                                TULLE                                 19012 TULLE CEDEX                     15 AV HENRI DE BOURNAZEL BP 239  19012 TULLE CEDEX                          0555200838                    DDFIP19@DGFIP.FINANCES.GOUV.FR                                LUNDI AU VENDREDI 8H30 A 12H  13H30 A 16H                                                                                                                                           1300147230001477000000000000000000000000000000000000000000000000000000000000                                                                                                                                            
0000000064999999992A0       9999999902A0000DFIP      2011102419860101C19870101                    000000000000000000000000000000               DIR REGION FINANCES PUBLIQUES CORSE ET CORSE-DU-SUD         DRFIP          CORSE-DU-SUD   99100942A0040670140002 CENTRE DES FINANCES PUBLIQUES         2 AVENUE DE LA GRANDE ARMEE           BP 410                                AJACCIO                               20191 AJACCIO CEDEX                   6 PARC CUNEO D'ORNANO            BP 409 20195 AJACCIO CEDEX                 0495235150                    DRFIP2A@DGFIP.FINANCES.GOUV.FR                                                                                                                                                                                                                    1300130480001777000000000000000000000000000000000000000000000000000000000000                                                                                                                                            
0000000065999999992B0       9999999902B0000DFIP      2011102419860101C19870101                    000000000000000000000000000000               DIR DEPT FINANCES PUBLIQUES   HAUTE-CORSE                   DDFIP          HAUTE-CORSE    99100942B033163514                                           SQUARE SAINT VICTOR                   BP 110                                BASTIA                                20291 BASTIA CEDEX                    SQUARE SAINT VICTOR              BP 110 20291 BASTIA CEDEX                  0495328120                    DDFIP2B@DGFIP.FINANCES.GOUV.FR                                TLJ SF SAMEDI DE 9H00 A 12H00 DE 14H00 A 17H00 ET SUR RDV                                                                                                                           1300126510001977000000000000000000000000000000000000000000000000000000000000                                                                                                                                            
000000006699999999210       999999990210000DFIP      2021040119860101C19870101                    000000000000000000000000000000               DIR REGION FINANCES PUBLIQUES BFC ET COTE D'OR              DRFIP          BFC-COTE D'OR  9910027212310640140001B                                      1BIS PLACE DE LA BANQUE                                                     DIJON                                 21042 DIJON CEDEX                     1BIS PLACE DE LA BANQUE          21042 DIJON CEDEX                          0380592600                    DRFIP21@DGFIP.FINANCES.GOUV.FR                                LMAJV 9H-12H 14H-16H           VENDREDI UNIQUEMENT SUR RDV                                                                                                                          1300072220001677000000000000000000000000000000000000000000000000000000000000                                                                                                                                            
000000006899999999220       999999990220000DFIP      2021050119860101C19870101                    000000000000000000000000000000               DIR DEPT FINANCES PUBLIQUES   COTES-D'ARMOR                 DDFIP          COTES-D'ARMOR  9910053222781890140017                                       17 RUE DE LA GARE                     BOITE POSTALE 82366                   ST BRIEUC                             22023 ST BRIEUC CEDEX 1               17 RUE DE LA GARE BP 82366       22023 ST BRIEUC CEDEX 1                    0296754100                    DDFIP22@DGFIP.FINANCES.GOUV.FR                                L-ME-V 9H-12H                  MA-J 9H-12H 13H30-16H                                                                                                                                1300101010001777000000000000000000000000000000000000000000000000000000000000                                                                                                                                            
000000006999999999230       999999990230000DFIP      2011102519860101C19870101                    000000000000000000000000000000               DIR DEPT FINANCES PUBLIQUES   CREUSE                        DDFIP          CREUSE         9910075230961790140002                                       2 BOULEVARD ST PARDOUX                BOITE POSTALE 149                     GUERET                                23011 GUERET CEDEX                    2 BD ST PARDOUX                  BP 149 23011 GUERET CEDEX                  0555513700                    DDFIP23@DGFIP.FINANCES.GOUV.FR                                LUNDI AU VENDREDI 8H30 A 12H  13H30 A 16H ET SUR RDV                                                                                                                                1300126440001477000000000000000000000000000000000000000000000000000000000000                                                                                                                                            
000000007099999999240       999999990240000DFIP      2021010419860101C19870101                    000000000000000000000000000000               DIR DEPT FINANCES PUBLIQUES   DORDOGNE                      DDFIP          DORDOGNE       9910075243224275140015                                       15 RUE 26E REGIMENT D INFANTERIE      CS 61000                              PERIGUEUX                             24053 PERIGUEUX CEDEX                 15 RUE 26E RI - CS 61000         24053 PERIGUEUX CEDEX                      0553033500                    DDFIP24@DGFIP.FINANCES.GOUV.FR                                                                                                                                                                                                                    1300147310050477000000000000000000000000000000000000000000000000000000000000                                                                                                                                            
000000007199999999250       999999990250000DFIP      2021070119860101C19870101                    000000000000000000000000000000               DIR DEPT FINANCES PUBLIQUES   DOUBS                         DDFIP          DOUBS          9910027250565095140063                                       63 QUAI VEIL PICARD                                                         BESANCON                              25030 BESANCON CEDEX                  63 QUAI VEIL PICARD              25030 BESANCON CEDEX                       0381252020                    DDFIP25@DGFIP.FINANCES.GOUV.FR                                ACCUEIL EXCLUSIVEMENT SUR     RENDEZ-VOUS                                                                                                                                           1300116460001077000000000000000000000000000000000000000000000000000000000000                                                                                                                                            
000000007399999999260       999999990260000DFIP      2017070119860101C19870101                    000000000000000000000000000000               DIR DEPT FINANCES PUBLIQUES   DROME                         DDFIP          DROME          9910084263627330140020                                       20 AVE PRESIDENT HERRIOT              BOITE POSTALE 1002                    VALENCE                               26015 VALENCE CEDEX                   20 AVE PRESIDENT HERRIOT         BP 1002 26015 VALENCE CEDEX                0475782100                    DDFIP26@DGFIP.FINANCES.GOUV.FR                                LUN MA JE 8H30-12H 13H30-16H  ME VE 8H30-12H                                                                                                                                        1300101190001977000000000000000000000000000000000000000000000000000000000000                                                                                                                                            
000000007499999999270       999999990270000DFIP      2021060119860101C19870101                    000000000000000000000000000000               DIR DEPT FINANCES PUBLIQUES   EURE                          DDFIP          EURE           991002827229137814     CITE ADMINISTRATIVE                   BD GEORGES CHAUVIN                    CS 50012                              EVREUX                                27020 EVREUX CEDEX                    BD GEORGES CHAUVIN               CS 50012 27020 EVREUX CEDEX                0232248600                    DDFIP27@DGFIP.FINANCES.GOUV.FR                                UNIQUEMENT SUR RV             TLJ 9H-12H LMEV 14H-16H                                                                                                                               1300128670001177000000000000000000000000000000000000000000000000000000000000                                                                                                                                            
000000007599999999280       999999990280000DFIP      2020010119860101C19870101                    000000000000000000000000000000               DIR DEPT FINANCES PUBLIQUES   EURE-ET-LOIR                  DDFIP          EURE-ET-LOIR   9910024280853350140003 DDFIP EURE ET LOIR                    3 PLACE DE LA REPUBLIQUE              CS 50525                              CHARTRES                              28019 CHARTRES CEDEX                  3 PCE DE LA REPUBLIQUE           28019 CHARTRES CEDEX                       0237187098                    DDFIP28@DGFIP.FINANCES.GOUV.FR                                L MA ME J V 8H30-12H30         ET SUR RV L J 14H-16H                                                                                                                                1300101680001677000000000000000000000000000000000000000000000000000000000000                                                                                                                                            
000000007699999999290       999999990290000DFIP      2021120119860101C19870101                    000000000000000000000000000000               DIR DEPT FINANCES PUBLIQUES   FINISTERE                     DDFIP          FINISTERE      9910053292321030140007ADDFIP DU FINISTERE LE STERENN         7A ALL URBAIN COUCHOUREN              CS 91709                              QUIMPER                               29107 QUIMPER CEDEX                   7A ALL URBAIN COUCHOUREN         CS 91709 29107 QUIMPER CEDEX               0298651040                    DDFIP29@DGFIP.FINANCES.GOUV.FR                                                                                                                                                                                                                    1300132200083077000000000000000000000000000000000000000000000000000000000000                                                                                                                                            
000000007799999999300       999999990300000DFIP      2011102519860101C19870101                    000000000000000000000000000000               DIR DEPT FINANCES PUBLIQUES   GARD                          DDFIP          GARD           9910076301891540140022                                       22 AVENUE CARNOT                                                            NIMES                                 30943 NIMES CEDEX 9                   22 AVENUE CARNOT                 30943 NIMES CEDEX 9                        0466364949                    DDFIP30@DGFIP.FINANCES.GOUV.FR                                                                                                                                                                                                                    1300110340001977000000000000000000000000000000000000000000000000000000000000                                                                                                                                            
000000007899999999310       999999990310000DFIP      2019042519860101C19870101                    000000000000000000000000000000               DIR REGION FINANCES PUBLIQUES OCCITANIE ET HAUTE-GARONNE    DRFIP          OCCIT-HTE GARON9910076315555304140034                                       34 RUE DES LOIS                                                             TOULOUSE                              31039 TOULOUSE CEDEX9                 34 RUE DES LOIS                  31039 TOULOUSE CEDEX9                      0561106700                    DRFIP31@DGFIP.FINANCES.GOUV.FR                                LUN MAR JEU 8H30-12H 13H30-16HMER VEN 8H30-12H ET SUR RDV                                                                                                                           1300083520001077000000000000000000000000000000000000000000000000000000000000                                                                                                                                            
000000008099999999320       999999990320000DFIP      2017120119860101C19870101                    000000000000000000000000000000               DIR DEPT FINANCES PUBLIQUES   GERS                          DDFIP          GERS           9910076320132340140002                                       2 PLACE JEAN DAVID                    CS 70352                              AUCH                                  32010 AUCH CEDEX                      2 PLACE JEAN DAVID               CS 70352 32010 AUCH CEDEX                  0562616400                    DDFIP32@DGFIP.FINANCES.GOUV.FR                                TLJ 8H45-12H 13H30-16H SF     LUNDI ET VENDREDI FERME AM                                                                                                                            1300132380001477000000000000000000000000000000000000000000000000000000000000                                                                                                                                            
000000008199999999330       999999990330000DFIP      2016102719860101C19870101                    000000000000000000000000000000               DIR REGION FINANCES PUBLIQUES NOUVELLE AQUITAINE ET GIRONDE DRFIP          NLE AQUIT-GIRON9910075330633685140024                                       24 RUE FRANCOIS DE SOURDIS            BOITE POSTALE 908                     BORDEAUX                              33060 BORDEAUX CEDEX                  24 RUE FRANCOIS DE SOURDIS       BP 908 33060 BORDEAUX CEDEX                0556907600                    DRFIP33@DGFIP.FINANCES.GOUV.FR                                                                                                                                                                                                                    1300110420001277000000000000000000000000000000000000000000000000000000000000                                                                                                                                            
000000008399999999340       999999990340000DFIP      2022040119860101C19870101                    000000000000000000000000000000               DIR DEPT FINANCES PUBLIQUES   HERAULT                       DDFIP          HERAULT        9910076341722767140334                                       334 ALLEE HENRI II DE MONTMORENCY                                           MONTPELLIER                           34954 MONTPELLIER CEDEX 2             334 ALLEE HENRI II DE MONTMORENCY34954 MONTPELLIER CEDEX 2                  0467157515                    DDFIP34@DGFIP.FINANCES.GOUV.FR                                LU AU VE 8H30-12H15           13H30-16H RDV TEL. UNIQUEMENT                                                                                                                         1300072300001977000000000000000000000000000000000000000000000000000000000000                                                                                                                                            
000000008599999999350       999999990350000DFIP      2012090119860101C19870101                    000000000000000000000000000000               DIR REGION FINANCES PUBLIQUES BRETAGNE ET ILLE-ET-VILAINE   DRFIP          ILLE-VILAINE   991005335238474014     CITE ADMINISTRATIVE                   AV JANVIER                            BP 72102                              RENNES                                35021 RENNES CEDEX 9                  AV JANVIER BP 72102              35021 RENNES CEDEX 9                       0299798000                    DRFIP35@DGFIP.FINANCES.GOUV.FR                                                                                                                                                                                                                    1300149390001677000000000000000000000000000000000000000000000000000000000000                                                                                                                                            
000000008799999999360       999999990360000DFIP      2021070119860101C19870101                    000000000000000000000000000000               DIR DEPT FINANCES PUBLIQUES    INDRE                        DDFIP          INDRE          9910024360440070140010                                       10 RUE ALBERT 1ER                     BOITE POSTALE 595                     CHATEAUROUX                           36019 CHATEAUROUX CEDEX               10 RUE ALBERT 1ER                BP 595 36019 CHATEAUROUX CEDEX             0254603434                    DDFIP36@DGFIP.FINANCES.GOUV.FR                                 UNIQUEMENT SUR RENDEZ VOUS                                                                                                                                                         1300072710001377000000000000000000000000000000000000000000000000000000000000                                                                                                                                            
000000008899999999370       999999990370000DFIP      2015100119860101C19870101                    000000000000000000000000000000               DIR DEPT FINANCES PUBLIQUES   INDRE-ET-LOIRE                DDFIP          INDRE-ET-LOIRE 9910024372610510140094                                       94 BD BERANGER                        CS 33228                              TOURS                                 37032 TOURS CEDEX 1                   94 BD BERANGER                   CS 33228 37032 TOURS CEDEX 1               0247217300                    DDFIP37@DGFIP.FINANCES.GOUV.FR                                                                                                                                                                                                                    1300147800001477000000000000000000000000000000000000000000000000000000000000                                                                                                                                            
000000008999999999380       999999990380000DFIP      2016070119860101C19870101                    000000000000000000000000000000               DIR DEPT FINANCES PUBLIQUES   ISERE                         DDFIP          ISERE          9910084381850880140008                                       8 RUE DE BELGRADE                                                           GRENOBLE                              38022 GRENOBLE CEDEX                  8 RUE DE BELGRADE                38022 GRENOBLE CEDEX                       0476857400                    DDFIP38@DGFIP.FINANCES.GOUV.FR                                                                                                                                                                                                                    1300147640001877000000000000000000000000000000000000000000000000000000000000                                                                                                                                            
000000009099999999390       999999990390000DFIP      2012090119860101C19870101                    000000000000000000000000000000               DIR DEPT FINANCES PUBLIQUES   JURA                          DDFIP          JURA           9910027393001015140008 DIR DEPT DES FINANCES PUBLIQUES       8 AV THUREL                           BOITE POSTALE 640                     LONS LE SAUNIER                       39021 LONS LE SAUNIER CEDEX           8 AV THUREL BP 640               39021 LONS LE SAUNIER CEDEX                0384351500                    DDFIP39@DGFIP.FINANCES.GOUV.FR                                TLJ SAUF SAMEDI 8H30 A 12H ET 13H30 A 16H                                                                                                                                           1300114480001177000000000000000000000000000000000000000000000000000000000000                                                                                                                                            
000000009199999999400       999999990400000DFIP      2011102519860101C19870101                    000000000000000000000000000000               DIR DEPT FINANCES PUBLIQUES   LANDES                        DDFIP          LANDES         9910075401920110140023                                       23 RUE ARMAND DULAMON                 BOITE POSTALE 309                     MONT DE MARSAN                        40011 MONT DE MARSAN CEDEX            23 RUE ARMAND DULAMON            BP 309 40011 MONT DE MARSAN CEDEX          0558466100                    DDFIP40@DGFIP.FINANCES.GOUV.FR                                                                                                                                                                                                                    1300072890001577000000000000000000000000000000000000000000000000000000000000                                                                                                                                            
000000009299999999410       999999990410000DFIP      2011102519860101C19870101                    000000000000000000000000000000               DIR DEPT FINANCES PUBLIQUES   LOIR-ET-CHER                  DDFIP          LOIR-ET-CHER   9910024410182375140010                                       10 RUE LOUIS BODIN                    CS 50001                              BLOIS                                 41026 BLOIS CEDEX                     10 RUE LOUIS BODIN CS 50001      41026 BLOIS CEDEX                          0254557080                    DDFIP41@DGFIP.FINANCES.GOUV.FR                                LUND A VEND 8H45-12H ET       13H30-16H15 ET OU SUR RDV                                                                                                                             1300132530001377000000000000000000000000000000000000000000000000000000000000                                                                                                                                            
000000009399999999420       999999990420000DFIP      2015080119860101C19870101                    000000000000000000000000000000               DIR DEPT FINANCES PUBLIQUES   LOIRE                         DDFIP          LOIRE          9910084422185860140011                                       11 RUE MI-CAREME                      BP 20502                              SAINT-ETIENNE                         42007 SAINT-ETIENNE CEDEX 1           11 RUE MI-CAREME BP 20502        42007 SAINT-ETIENNE CEDEX 1                0477478704                    DDFIP42@DGFIP.FINANCES.GOUV.FR                                FERME AU PUBLIC                                                                                                                                                                     1300132610001677000000000000000000000000000000000000000000000000000000000000                                                                                                                                            
000000009499999999430       999999990430000DFIP      2021070119860101C19870101                    000000000000000000000000000000               DIR DEPT FINANCES PUBLIQUES   HAUTE-LOIRE                   DDFIP          HAUTE-LOIRE    9910084431571480140017                                       17 RUE DES MOULINS                    BOITE POSTALE 10351                   LE PUY EN VELAY                       43012 LE PUY EN VELAY CEDEX           17 RUE DES MOULINS BP10351       43012 LE PUY EN VELAY CEDEX                0471098420                    DDFIP43@DGFIP.FINANCES.GOUV.FR                                TEL 8H30-12H 13H30-16H        GUICHET8H30-12H30DONT L J S RV                                                                                                                        1300147490001977000000000000000000000000000000000000000000000000000000000000                                                                                                                                            
000000009599999999440       999999990440000DFIP      2022040119860101C19870101                    000000000000000000000000000000               DIR REGION FINANCES PUBLIQUES PAYS LOIRE ET LOIRE-ATLANTIQUEDRFIP          LOIRE-ATLANTIQ.9910052441098359140004                                       4 QUAI DE VERSAILLES                  CS 93503                              NANTES                                44035 NANTES CEDEX 1                  4 QUAI DE VERSAILLES CS 93503    44035 NANTES CEDEX 1                       0240207660                    DRFIP44@DGFIP.FINANCES.GOUV.FR                                8H30-12H00 ET SUR RENDEZ-VOUS                                                                                                                                                       1300129250001777000000000000000000000000000000000000000000000000000000000000                                                                                                                                            
000000009799999999450       999999990450000DFIP      2016070119860101C19870101                    000000000000000000000000000000               DIR REGION FINANCES PUBLIQUES CENTRE-VAL DE LOIRE ET LOIRET DRFIP          CVDL-LOIRET    9910024452344510140004                                       4 PCE DU MARTROI                      CS 12435                              ORLEANS                               45032 ORLEANS CEDEX 1                 4 PCE DU MARTROI                 CS 12435 45032 ORLEANS CEDEX 1             0238796959                    DRFIP45@DGFIP.FINANCES.GOUV.FR                                TOUS LES JOURS 8H45 - 12H15                                                                                                                                                         1300110590001677000000000000000000000000000000000000000000000000000000000000                                                                                                                                            
000000009999999999460       999999990460000DFIP      2022030119860101C19870101                    000000000000000000000000000000               DIR DEPT FINANCES PUBLIQUES   LOT                           DDFIP          LOT            9910076460422870140190 DDFIP DU LOT                          190 RUE DU PRESIDENT WILSON                                                 CAHORS                                46000 CAHORS                          190 RUE DU PRESIDENT WILSON      46000 CAHORS                               0565203200                    DDFIP46@DGFIP.FINANCES.GOUV.FR                                SUR RENDEZ-VOUS               DU LUNDI AU VENDREDI                                                                                                                                  1300130890001177000000000000000000000000000000000000000000000000000000000000                                                                                                                                            
000000010099999999470       999999990470000DFIP      2016070119860101C19870101                    000000000000000000000000000000               DIR DEPT FINANCES PUBLIQUES   LOT-ET-GARONNE                DDFIP          LOT-ET-GARONNE 9910075470011880140001                                       1 PLACE DES JACOBINS                  BOITE POSTALE 70016                   AGEN                                  47916 AGEN CEDEX 9                    1 PCE DES JACOBINS BP 70016      47916 AGEN CEDEX 9                         0553775151                    DDFIP47@DGFIP.FINANCES.GOUV.FR                                SUR RENDEZ-VOUS                                                                                                                                                                     1300128750001477000000000000000000000000000000000000000000000000000000000000                                                                                                                                            
000000010199999999480       999999990480000DFIP      2011102519860101C19870101                    000000000000000000000000000000               DIR DEPT FINANCES PUBLIQUES   LOZERE                        DDFIP          LOZERE         9910076480950760140001T                                      1T BD LUCIEN ARNAULT                  BP 131                                MENDE                                 48005 MENDE CEDEX                     1T BD LUCIEN ARNAULT             48005 MENDE CEDEX                          0466425160                    DDFIP48@DGFIP.FINANCES.GOUV.FR                                                                                                                                                                                                                    1300147720001177000000000000000000000000000000000000000000000000000000000000                                                                                                                                            
000000010299999999490       999999990490000DFIP      2021010119860101C19870101                    000000000000000000000000000000               DIR DEPT FINANCES PUBLIQUES   MAINE-ET-LOIRE                DDFIP          MAINE-ET-LOIRE 9910052490077480140001                                       1 RUE TALOT                           BOITE POSTALE 84112                   ANGERS                                49041 ANGERS CEDEX 01                 1 RUE TALOT                      BP 84112 49041 ANGERS CEDEX 01             0241202200                    DDFIP49@DGFIP.FINANCES.GOUV.FR                                TLJ SEULEMENT SUR RV 9H-12H   13H-16H                                                                                                                                               1300132950001477000000000000000000000000000000000000000000000000000000000000                                                                                                                                            
000000010399999999500       999999990500000DFIP      2011102519860101C19870101                    000000000000000000000000000000               DIR DEPT FINANCES PUBLIQUES   MANCHE                        DDFIP          MANCHE         991002850502244014     CITE ADMINISTRATIVE                   PCE DE LA PREFECTURE                  BOITE POSTALE 225                     SAINT LO                              50015 SAINT LO CEDEX                  CITE ADMINISTRATIVE              BP 225 50015 ST LO CEDEX                   0233775100                    DDFIP50@DGFIP.FINANCES.GOUV.FR                                                                                                                                                                                                                    1300101760001977000000000000000000000000000000000000000000000000000000000000                                                                                                                                            
000000010499999999510       999999990510000DFIP      2016060119860101C19870101                    000000000000000000000000000000               DIR DEPT FINANCES PUBLIQUES   MARNE                         DDFIP          MARNE          9910044511083340140012                                       12 RUE SAINTE MARGUERITE                                                    CHALONS EN CHAMPAGNE                  51022 CHALONS EN CHAMPAGNE CEDEX      12 RUE SAINTE MARGUERITE         51022 CHALONS EN CHAMPAGNE CEDEX           0326695300                    DDFIP51@DGFIP.FINANCES.GOUV.FR                                                                                                                                                                                                                    1300072480001177000000000000000000000000000000000000000000000000000000000000                                                                                                                                            
000000010699999999520       999999990520000DFIP      2020102619860101C19870101                    000000000000000000000000000000               DIR DEPT FINANCES PUBLIQUES   HAUTE-MARNE                   DDFIP          HAUTE-MARNE    9910044521210190140019                                       19 RUE BOUCHARDON                     BOITE POSTALE 523                     CHAUMONT                              52011 CHAUMONT CEDEX                  19 RUE BOUCHARDON                BP 523 52011 CHAUMONT CEDEX                0325306800                    DDFIP52@DGFIP.FINANCES.GOUV.FR                                LUNDI AU VENDREDI DE 8H15     A 11H45 ET DE 13H30 A 16H30                                                                                                                           1300132460002577000000000000000000000000000000000000000000000000000000000000                                                                                                                                            
000000010799999999530       999999990530000DFIP      2015080119860101C19870101                    000000000000000000000000000000               DIR DEPT FINANCES PUBLIQUES   MAYENNE                       DDFIP          MAYENNE        9910052531300910140024                                       24 ALLEE DE CAMBRAI                   BP 31439                              LAVAL                                 53014 LAVAL CEDEX                     24 ALLEE DE CAMBRAI BP 31439     53014 LAVAL CEDEX                          0243497400                    DDFIP53@DGFIP.FINANCES.GOUV.FR                                                                                                                                                                                                                    1300110670024177000000000000000000000000000000000000000000000000000000000000                                                                                                                                            
000000010899999999540       999999990540000DFIP      2013090119860101C19870101                    000000000000000000000000000000               DIR DEPT FINANCES PUBLIQUES   MEURTHE-ET-MOSELLE            DDFIP          MEURTHE-MOSEL. 9910044543954190140050                                       50 RUE DES PONTS                      CS 60069                              NANCY                                 54036 NANCY CEDEX                     50 RUE DES PONTS                 CS 60069 54036 NANCY CEDEX                 0383177010                    DDFIP54@DGFIP.FINANCES.GOUV.FR                                                                                                                                                                                                                    1300114300001977000000000000000000000000000000000000000000000000000000000000                                                                                                                                            
000000011099999999550       999999990550000DFIP      2015030119860101C19870101                    000000000000000000000000000000               DIR DEPT FINANCES PUBLIQUES   MEUSE                         DDFIP          MEUSE          9910044550290400140017                                       17 RUE DU GENERAL DE GAULLE           BOITE POSTALE 40513                   BAR LE DUC                            55012 BAR LE DUC CEDEX                17 RUE DU GENERAL DE GAULLE      BP 40513 55012 BAR LE DUC CEDEX            0329457000                    DDFIP55@DGFIP.FINANCES.GOUV.FR                                DU LUNDI AU VENDREDI          9H A 12H ET 13H30 A 16H                                                                                                                               1300083940001277000000000000000000000000000000000000000000000000000000000000                                                                                                                                            
000000011199999999560       999999990560000DFIP      2011102519860101C19870101                    000000000000000000000000000000               DIR DEPT FINANCES PUBLIQUES   MORBIHAN                      DDFIP          MORBIHAN       9910053562602580140035                                       35 BOULEVARD DE LA PAIX               BOITE POSTALE 510                     VANNES                                56019 VANNES CEDEX                    35 BD DE LA PAIX                 BP 510 56019 VANNES CEDEX                  0297681700                    DDFIP56@DGFIP.FINANCES.GOUV.FR                                SUR RENDEZ-VOUS                                                                                                                                                                     1300101840001377000000000000000000000000000000000000000000000000000000000000                                                                                                                                            
000000011299999999570       999999990570000DFIP      2016020119860101C19870101                    000000000000000000000000000000               DIR DEPT FINANCES PUBLIQUES   MOSELLE                       DDFIP          MOSELLE        9910044574632610140001                                       1 RUE FRANCOIS DE CUREL               BOITE POSTALE 41054                   METZ                                  57036 METZ CEDEX 1                    1 RUE FRANCOIS DE CUREL          BP 41054 57036 METZ CEDEX 1                0387386868                    DDFIP57@DGFIP.FINANCES.GOUV.FR                                                                                                                                                                                                                    1300126360001077000000000000000000000000000000000000000000000000000000000000                                                                                                                                            
000000011399999999580       999999990580000DFIP      2020060119860101C19870101                    000000000000000000000000000000               DIR DEPT FINANCES PUBLIQUES   NIEVRE                        DDFIP          NIEVRE         9910027581942690140012                                       12 RUE HENRI BARBUSSE                 BOITE POSTALE 60028                   NEVERS                                58019 NEVERS CEDEX                    12 RUE HENRI BARBUSSE            BP 60028 58019 NEVERS CEDEX                0386719600                    DDFIP58@DGFIP.FINANCES.GOUV.FR                                                                                                                                                                                                                    1300128830001877000000000000000000000000000000000000000000000000000000000000                                                                                                                                            
000000011499999999591       999999990590000DFIP      2018040119860101C19870101                    000000000000000000000000000000               DIR REGION FINANCES PUBLIQUES HAUTS DE FRANCE ET NORD       DRFIP          HTS FRANCE-ND  9910032593507144140082                                       82 AV KENNEDY                         CS 51801 59881 LILLE CEDEX 9          LILLE                                 59881 LILLE CEDEX 9                   82 AV KENNEDY                    CS 51801 59881 LILLE CEDEX 9               0320624242                    DRFIP59@DGFIP.FINANCES.GOUV.FR                                LUNDI AU VENDREDI             8H30-16H15                                                                                                                                            1300072550001678000000000000000000000000000000000000000000000000000000000000                                                                                                                                            
000000011599999999592       99999999       DFIP      2016102419860101C19870101                    000000000000000000000000000000               DIR REGION FINANCES PUBLIQUES HAUTS DE FRANCE ET NORD       DRFIP          HTS FRANCE-ND  9910032593507144140082                                       82 AV KENNEDY                         BOITE POSTALE 70689                   LILLE                                 59033 LILLE CEDEX                     82 AV KENNEDY                    BP70689 59033 LILLE CEDEX                  0320624242                    DRFIP59@DGFIP.FINANCES.GOUV.FR                                LUNDI AU VENDREDI             8H30-16H15                                                                                                                                            1300072550001679000000000000000000000000000000000000000000000000000000000000                                                                                                                                            
000000011799999999600       999999990600000DFIP      2012120119860101C19870101                    000000000000000000000000000000               DIR DEPT FINANCES PUBLIQUES   OISE                          DDFIP          OISE           9910032600572120140002                                       2 RUE MOLIERE                         CS 80323                              BEAUVAIS                              60021 BEAUVAIS CEDEX                  2 RUE MOLIERE CS 80323           60021 BEAUVAIS CEDEX                       0344063535                    DDFIP60@DGFIP.FINANCES.GOUV.FR                                                                                                                                                                                                                    1300116530001677000000000000000000000000000000000000000000000000000000000000                                                                                                                                            
000000011899999999610       999999990610000DFIP      2021050119860101C19870101                    000000000000000000000000000000               DIR DEPT FINANCES PUBLIQUES   ORNE                          DDFIP          ORNE           9910028610012350140029                                       29 RUE DU PONT NEUF                   BP 344                                ALENCON                               61014 ALENCON CEDEX                   29 RUE DU PONT NEUF              61014 ALENCON CEDEX                        0233825200                    DDFIP61@DGFIP.FINANCES.GOUV.FR                                TLJ 8H30-12H 14H-16H          SF ME AM                                                                                                                                              1300084020001377000000000000000000000000000000000000000000000000000000000000                                                                                                                                            
000000011999999999620       999999990620000DFIP      2017010119860101C19870101                    000000000000000000000000000000               DIR DEPT FINANCES PUBLIQUES   PAS-DE-CALAIS                 DDFIP          PAS-DE-CALAIS  9910032620411225140005                                       5 RUE DU DOCTEUR BRASSART             BP 30015                              ARRAS                                 62034 ARRAS CEDEX                     5 RUE DU DR BRASSART BP 30015    62034 ARRAS CEDEX                          0321236800                    DDFIP62@DGFIP.FINANCES.GOUV.FR                                TLJ 8H30-12H15 - LUN ET MAR   13H30-16H15 ET SUR RDV                                                                                                                                1300084100001677000000000000000000000000000000000000000000000000000000000000                                                                                                                                            
000000012099999999630       999999990630000DFIP      2021080119860101C19870101                    000000000000000000000000000000               DIR DEPT FINANCES PUBLIQUES   PUY-DE-DOME                   DDFIP          PUY-DE-DOME    9910084631132125140002                                       2 RUE GILBERT MOREL                                                         CLERMONT FERRAND                      63033 CLERMONT FERRAND CEDEX 1        2 RUE GILBERT MOREL              63033 CLERMONT FERRAND CEDEX 1             0473431000                    DDFIP63@DGFIP.FINANCES.GOUV.FR                                LUNDI- VENDREDI 8H30-12H30                                                                                                                                                          1300116610001977000000000000000000000000000000000000000000000000000000000000                                                                                                                                            
000000012299999999640       999999990640000DFIP      2021120119860101C19870101                    000000000000000000000000000000               DIR DEPT FINANCES PUBLIQUES   PYRENEES-ATLANTIQUES          DDFIP          PYRENEES-ATL.  9910075644451459140008                                       8 PCE D ESPAGNE                                                             PAU                                   64019 PAU CEDEX                       8 PCE D ESPAGNE                  64019 PAU CEDEX                            0559822400                    DDFIP64@DGFIP.FINANCES.GOUV.FR                                TOUS LES JOURS SUR RDV                                                                                                                                                              1300101920001677000000000000000000000000000000000000000000000000000000000000                                                                                                                                            
000000012399999999650       999999990650000DFIP      2015080119860101C19870101                    000000000000000000000000000000               DIR DEPT FINANCES PUBLIQUES   HAUTES-PYRENEES               DDFIP          HTES-PYRENEES  9910076654402620140004                                       4 CHEMIN DE L ORMEAU                  BOITE POSTALE 1346                    TARBES                                65013 TARBES CEDEX 9                  4 CHEMIN DE L ORMEAU             BP 1346 65013 TARBES CEDEX 9               0562446000                    DDFIP65@DGFIP.FINANCES.GOUV.FR                                OUVERT DU MARDI AU VENDREDI   8H30-12H ET 13H30-16H                                                                                                                                 1300114220001677000000000000000000000000000000000000000000000000000000000000                                                                                                                                            
000000012499999999660       999999990660000DFIP      2019100119860101C19870101                    000000000000000000000000000000               DIR DEPT FINANCES PUBLIQUES   PYRENEES-ORIENTALES           DDFIP          PYRENEES-ORIEN 991007666136029214     RES ARAGO                             SQ ARAGO                              BOITE POSTALE 950                     PERPIGNAN                             66950 PERPIGNAN CEDEX                 SQ ARAGO                         BP950 66950 PERPIGNAN CEDEX                0468358181                    DDFIP66@DGFIP.FINANCES.GOUV.FR                                 SEULEMENT SUR RV MA ME J     8H30-11H30                                                                                                                                            1300084280001877000000000000000000000000000000000000000000000000000000000000                                                                                                                                            
000000012599999999670       999999990670000DFIP      2017020119860101C19870101                    000000000000000000000000000000               DIR REGION FINANCES PUBLIQUES GRAND EST ET BAS-RHIN         DRFIP          GD EST-BAS-RHIN9910044674825535140004                                       4 PCE DE LA REPUBLIQUE                CS 51002                              STRASBOURG                            67070 STRASBOURG CEDEX                4 PCE DE LA REPUBLIQUE           CS 51002 67070 STRASBOURG CEDEX            0388253737                    DRFIP67@DGFIP.FINANCES.GOUV.FR                                SUR RDV UNIQUEMENT                                                                                                                                                                  1300129330001177000000000000000000000000000000000000000000000000000000000000                                                                                                                                            
000000012799999999680       999999990680000DFIP      2011102419860101C19870101                    000000000000000000000000000000               DIR DEPT FINANCES PUBLIQUES   HAUT-RHIN                     DDFIP          HAUT-RHIN      9910044680660500140006                                       6 RUE BRUAT                           BP 60449                              COLMAR                                68020 COLMAR CEDEX                    6 RUE BRUAT                      BP 60449 68020 COLMAR CEDEX                0389245353                    DDFIP68@DGFIP.FINANCES.GOUV.FR                                                                                                                                                                                                                    1300129090001177000000000000000000000000000000000000000000000000000000000000                                                                                                                                            
000000012899999999690       999999990690000DFIP      2022010119860101C19870101                    000000000000000000000000000000               DIR REGION FINANCES PUBLIQUES AUVERGNE-RHONE-ALPES ET RHONE DRFIP          ARA-RHONE      9910084693821485140003                                       3 RUE DE LA CHARITE                                                         LYON                                  69268 LYON CEDEX 02                   3 RUE DE LA CHARITE              69268 LYON CEDEX 02                        0472408400                    DRFIP69@DGFIP.FINANCES.GOUV.FR                                SUR RDV DU LUNDI AU VENDREDI  SANS RDV L MA J V 8H45-12H                                                                                                                            1300100360001577000000000000000000000000000000000000000000000000000000000000                                                                                                                                            
000000013099999999700       999999990700000DFIP      2021010119860101C19870101                    000000000000000000000000000000               DIR DEPT FINANCES PUBLIQUES   HAUTE-SAONE                   DDFIP          HAUTE-SAONE    9910027705501082140008                                       8 PLACE PIERRE RENET                  BP 399                                VESOUL                                70014 VESOUL CEDEX                    8 PLACE PIERRE RENET             BP 399 70014 VESOUL CEDEX                  0384961414                    DDFIP70@DGFIP.FINANCES.GOUV.FR                                TLJ 9 H 00 - 12 H 00          MARDI JEUDI 13 H 30 - 16 H 00                                                                                                                         1300130550001277000000000000000000000000000000000000000000000000000000000000                                                                                                                                            
000000013199999999710       999999990710000DFIP      2015070119860101C19870101                    000000000000000000000000000000               DIR DEPT FINANCES PUBLIQUES   SAONE-ET-LOIRE                DDFIP          SAONE-ET-LOIRE 9910027712703230140029                                       29 RUE LAMARTINE                                                            MACON                                 71017 MACON                           29 RUE LAMARTINE                 71017 MACON                                0385396565                    DDFIP71@DGFIP.FINANCES.GOUV.FR                                9H00 11H30 13H30 16H00                                                                                                                                                              1300128260001777000000000000000000000000000000000000000000000000000000000000                                                                                                                                            
000000013299999999720       999999990720000DFIP      2018120119860101C19870101                    000000000000000000000000000000               DIR DEPT FINANCES PUBLIQUES   SARTHE                        DDFIP          SARTHE         9910052721811429140023                                       23 PL DES COMTES DU MAINE             BP 22394                              LE MANS                               72002 LE MANS CEDEX 1                 23 PL DES COMTES DU MAINE BP2239472002 LE MANS CEDEX 1                      0243435858                    DDFIP72@DGFIP.FINANCES.GOUV.FR                                LU MA JE 8H45-12H15 13H30-16H MER VEN 8H45-12H15                                                                                                                                    1300130630001677000000000000000000000000000000000000000000000000000000000000                                                                                                                                            
000000013399999999730       999999990730000DFIP      2011102419860101C19870101                    000000000000000000000000000000               DIR DEPT FINANCES PUBLIQUES   SAVOIE                        DDFIP          SAVOIE         9910084730652000140005                                       5 RUE JEAN GIRARD MADOUX              BP 1145                               CHAMBERY                              73011 CHAMBERY CEDEX                  5 RUE JEAN GIRARD MADOUX         BP 1145 73011 CHAMBERY CEDEX               0479333209                    DDFIP73@DGFIP.FINANCES.GOUV.FR                                                                                                                                                                                                                    1300130710001977000000000000000000000000000000000000000000000000000000000000                                                                                                                                            
000000013499999999740       999999990740000DFIP      2011102419860101C19870101                    000000000000000000000000000000               DIR DEPT FINANCES PUBLIQUES   HAUTE-SAVOIE                  DDFIP          HAUTE-SAVOIE   9910084740101050140018                                       18 RUE DE LA GARE                     BOITE POSTALE 330                     ANNECY                                74008 ANNECY CEDEX                    18 RUE DE LA GARE BP 330         74008 ANNECY CEDEX                         0450511610                    DDFIP74@DGFIP.FINANCES.GOUV.FR                                                                                                                                                                                                                    1300147560001477000000000000000000000000000000000000000000000000000000000000                                                                                                                                            
